S010000054686572656D696E2E73726563D8
S11300000C947A000C948C000C948C000C948C004E
S11300100C948C000C948C000C948C000C948C002C
S11300200C948C000C948C000C948C000C948C001C
S11300300C948C000C948C000C948C000C948C000C
S11300400C948C000C948C000C948C000C948C00FC
S11300500C948C000C948C000C948C000C948C00EC
S11300600C948C000C948C000C948C000C948C00DC
S11300700C948C000C948C000C948C000C948C00CC
S11300800C948C000C948C000C948C000C948C00BC
S11300900C948C000C948C000C948C000C948C00AC
S11300A00C948C000C948C000C948C000C948C009C
S11300B00C948C000C948C000C948C000C948C008C
S11300C00C948C000C948C000C948C000C948C007C
S11300D00C948C000C948C000C948C000C948C006C
S11300E00C948C000C948C000C948C000C948C005C
S11300F00C948C0011241FBECFEFCDBFDFE7DEBF11
S113010020E4A0E0B0E401C01D92A030B207E1F702
S11301100E94A1000C94B1000C940000E0E6F8E009
S11301208DE890E280879187A0E2B4E08C918160B1
S11301308C93868180648683089580E8809361042B
S1130140089560E288E690E00E94AB000E948E0071
S11301500E949D00FFCFDC0128ED209334006C93B6
S10901600895F894FFCF9E
S9030000FC
